:020000020000FC
:10C0000031400004B0120CC0B012ACC0B240805A33
:10C010002001F2D0070022003E401F001C3C0C43D0
:10C02000B01292C00C4EB0127EC01C43B01292C02F
:10C030001C43B0127EC00C43B01292C03C401F00A3
:10C040000C8EB0127EC0B012A2C0003C3F40030D67
:10C050003F53FE2F3E530E93DF3B3E901F00DF23E6
:10C060000C43B01292C00C4EB0127EC01C43B012F2
:10C0700092C01C43B0127EC0B012A2C0E63F0F4374
:10C08000053CD2D32100D2C321001F530F9CF93BA2
:10C0900030411C930320E2D321003041E2C3210050
:10C0A0003041E2D22100E2C2210030413040B0C034
:06C0B0003040B4C0FF3F68
:02FFFE0000C041
:040000030000C00039
:00000001FF
